{
  "contractName": "ERC20",
  "abi": [
    {
      "inputs": [],
      "stateMutability": "nonpayable",
      "type": "constructor"
    },
    {
      "anonymous": false,
      "inputs": [
        {
          "indexed": true,
          "internalType": "address",
          "name": "_owner",
          "type": "address"
        },
        {
          "indexed": true,
          "internalType": "address",
          "name": "_spender",
          "type": "address"
        },
        {
          "indexed": false,
          "internalType": "uint256",
          "name": "_value",
          "type": "uint256"
        }
      ],
      "name": "Appoval",
      "type": "event"
    },
    {
      "anonymous": false,
      "inputs": [
        {
          "indexed": true,
          "internalType": "address",
          "name": "_from",
          "type": "address"
        },
        {
          "indexed": true,
          "internalType": "address",
          "name": "_to",
          "type": "address"
        },
        {
          "indexed": false,
          "internalType": "uint256",
          "name": "_value",
          "type": "uint256"
        }
      ],
      "name": "Transfer",
      "type": "event"
    },
    {
      "inputs": [
        {
          "internalType": "address",
          "name": "",
          "type": "address"
        },
        {
          "internalType": "address",
          "name": "",
          "type": "address"
        }
      ],
      "name": "allowance",
      "outputs": [
        {
          "internalType": "uint256",
          "name": "",
          "type": "uint256"
        }
      ],
      "stateMutability": "view",
      "type": "function"
    },
    {
      "inputs": [
        {
          "internalType": "address",
          "name": "",
          "type": "address"
        }
      ],
      "name": "balanceOf",
      "outputs": [
        {
          "internalType": "uint256",
          "name": "",
          "type": "uint256"
        }
      ],
      "stateMutability": "view",
      "type": "function"
    },
    {
      "inputs": [
        {
          "internalType": "address",
          "name": "_to",
          "type": "address"
        },
        {
          "internalType": "uint256",
          "name": "_value",
          "type": "uint256"
        }
      ],
      "name": "transfer",
      "outputs": [
        {
          "internalType": "bool",
          "name": "success",
          "type": "bool"
        }
      ],
      "stateMutability": "nonpayable",
      "type": "function"
    },
    {
      "inputs": [
        {
          "internalType": "address",
          "name": "_spender",
          "type": "address"
        },
        {
          "internalType": "uint256",
          "name": "_value",
          "type": "uint256"
        }
      ],
      "name": "approve",
      "outputs": [
        {
          "internalType": "bool",
          "name": "success",
          "type": "bool"
        }
      ],
      "stateMutability": "nonpayable",
      "type": "function"
    },
    {
      "inputs": [
        {
          "internalType": "address",
          "name": "_from",
          "type": "address"
        },
        {
          "internalType": "address",
          "name": "_to",
          "type": "address"
        },
        {
          "internalType": "uint256",
          "name": "_value",
          "type": "uint256"
        }
      ],
      "name": "transferFrom",
      "outputs": [
        {
          "internalType": "bool",
          "name": "success",
          "type": "bool"
        }
      ],
      "stateMutability": "nonpayable",
      "type": "function"
    }
  ],
  "bytecode": "0x608060405234801561001057600080fd5b506040518060400160405280600581526020017f45524332300000000000000000000000000000000000000000000000000000008152506000908051906020019061005c9291906100d4565b506040518060400160405280600281526020017f484b000000000000000000000000000000000000000000000000000000000000815250600190805190602001906100a89291906100d4565b506012600260006101000a81548160ff021916908360ff160217905550620f42406003819055506101d8565b8280546100e0906101a6565b90600052602060002090601f0160209004810192826101025760008555610149565b82601f1061011b57805160ff1916838001178555610149565b82800160010185558215610149579182015b8281111561014857825182559160200191906001019061012d565b5b509050610156919061015a565b5090565b5b8082111561017357600081600090555060010161015b565b5090565b7f4e487b7100000000000000000000000000000000000000000000000000000000600052602260045260246000fd5b600060028204905060018216806101be57607f821691505b602082108114156101d2576101d1610177565b5b50919050565b61099e806101e76000396000f3fe608060405234801561001057600080fd5b50600436106100575760003560e01c8063095ea7b31461005c57806323b872dd1461008c57806370a08231146100bc578063a9059cbb146100ec578063dd62ed3e1461011c575b600080fd5b6100766004803603810190610071919061074f565b61014c565b60405161008391906107aa565b60405180910390f35b6100a660048036038101906100a191906107c5565b61028a565b6040516100b391906107aa565b60405180910390f35b6100d660048036038101906100d19190610818565b610510565b6040516100e39190610854565b60405180910390f35b6101066004803603810190610101919061074f565b610528565b60405161011391906107aa565b60405180910390f35b6101366004803603810190610131919061086f565b610691565b6040516101439190610854565b60405180910390f35b600081600460003373ffffffffffffffffffffffffffffffffffffffff1673ffffffffffffffffffffffffffffffffffffffff16815260200190815260200160002054101561019a57600080fd5b81600560003373ffffffffffffffffffffffffffffffffffffffff1673ffffffffffffffffffffffffffffffffffffffff16815260200190815260200160002060008573ffffffffffffffffffffffffffffffffffffffff1673ffffffffffffffffffffffffffffffffffffffff168152602001908152602001600020819055508273ffffffffffffffffffffffffffffffffffffffff163373ffffffffffffffffffffffffffffffffffffffff167f933a0ccf4ebaa09fb6d0527d53a548713724fc58a9e45dae20712c83409e44b9846040516102789190610854565b60405180910390a36001905092915050565b600081600560008673ffffffffffffffffffffffffffffffffffffffff1673ffffffffffffffffffffffffffffffffffffffff16815260200190815260200160002060003373ffffffffffffffffffffffffffffffffffffffff1673ffffffffffffffffffffffffffffffffffffffff16815260200190815260200160002054101561031557600080fd5b81600460008673ffffffffffffffffffffffffffffffffffffffff1673ffffffffffffffffffffffffffffffffffffffff16815260200190815260200160002054101561036157600080fd5b81600460008673ffffffffffffffffffffffffffffffffffffffff1673ffffffffffffffffffffffffffffffffffffffff16815260200190815260200160002060008282546103b091906108de565b9250508190555081600460008573ffffffffffffffffffffffffffffffffffffffff1673ffffffffffffffffffffffffffffffffffffffff16815260200190815260200160002060008282546104069190610912565b9250508190555081600560008673ffffffffffffffffffffffffffffffffffffffff1673ffffffffffffffffffffffffffffffffffffffff16815260200190815260200160002060003373ffffffffffffffffffffffffffffffffffffffff1673ffffffffffffffffffffffffffffffffffffffff168152602001908152602001600020600082825461049991906108de565b925050819055508273ffffffffffffffffffffffffffffffffffffffff168473ffffffffffffffffffffffffffffffffffffffff167fddf252ad1be2c89b69c2b068fc378daa952ba7f163c4a11628f55a4df523b3ef846040516104fd9190610854565b60405180910390a3600190509392505050565b60046020528060005260406000206000915090505481565b600081600460003373ffffffffffffffffffffffffffffffffffffffff1673ffffffffffffffffffffffffffffffffffffffff16815260200190815260200160002054101561057657600080fd5b81600460003373ffffffffffffffffffffffffffffffffffffffff1673ffffffffffffffffffffffffffffffffffffffff16815260200190815260200160002060008282546105c591906108de565b9250508190555081600460008573ffffffffffffffffffffffffffffffffffffffff1673ffffffffffffffffffffffffffffffffffffffff168152602001908152602001600020600082825461061b9190610912565b925050819055508273ffffffffffffffffffffffffffffffffffffffff163373ffffffffffffffffffffffffffffffffffffffff167fddf252ad1be2c89b69c2b068fc378daa952ba7f163c4a11628f55a4df523b3ef8460405161067f9190610854565b60405180910390a36001905092915050565b6005602052816000526040600020602052806000526040600020600091509150505481565b600080fd5b600073ffffffffffffffffffffffffffffffffffffffff82169050919050565b60006106e6826106bb565b9050919050565b6106f6816106db565b811461070157600080fd5b50565b600081359050610713816106ed565b92915050565b6000819050919050565b61072c81610719565b811461073757600080fd5b50565b60008135905061074981610723565b92915050565b60008060408385031215610766576107656106b6565b5b600061077485828601610704565b92505060206107858582860161073a565b9150509250929050565b60008115159050919050565b6107a48161078f565b82525050565b60006020820190506107bf600083018461079b565b92915050565b6000806000606084860312156107de576107dd6106b6565b5b60006107ec86828701610704565b93505060206107fd86828701610704565b925050604061080e8682870161073a565b9150509250925092565b60006020828403121561082e5761082d6106b6565b5b600061083c84828501610704565b91505092915050565b61084e81610719565b82525050565b60006020820190506108696000830184610845565b92915050565b60008060408385031215610886576108856106b6565b5b600061089485828601610704565b92505060206108a585828601610704565b9150509250929050565b7f4e487b7100000000000000000000000000000000000000000000000000000000600052601160045260246000fd5b60006108e982610719565b91506108f483610719565b925082821015610907576109066108af565b5b828203905092915050565b600061091d82610719565b915061092883610719565b9250827fffffffffffffffffffffffffffffffffffffffffffffffffffffffffffffffff0382111561095d5761095c6108af565b5b82820190509291505056fea26469706673582212209b0cf3cdf687646fe485a83c5a16713e1740e0142893d9ac1a4bec6cf1a568f964736f6c634300080b0033",
  "immutableReferences": {},
  "source": "//SPDX-License-Identifier: UNLICENSED\r\n\r\npragma solidity >= 0.5.0 < 0.9.0;\r\n\r\ncontract ERC20{\r\n    string name;\r\n    //In started docs name is specified as a function.In my case i am making it a public variable so that a getter function can be created automaticaly\r\n    string symbol;\r\n    //Same as name\r\n    uint8 decimals;\r\n    //Same as name\r\n    uint256 totalSupply;\r\n    //Same as name\r\n\r\n    mapping(address=>uint256) public balanceOf;\r\n    //Same as name but it is a public mapping.\r\n    mapping(address=>mapping(address=>uint256)) public allowance;\r\n    //same as balanceOf\r\n\r\n    event Transfer(\r\n        address indexed _from,\r\n        address indexed _to,\r\n        uint256 _value\r\n    );\r\n    event Appoval(\r\n        address indexed _owner,\r\n        address indexed _spender,\r\n        uint256 _value\r\n    );\r\n\r\n    constructor(){\r\n        name=\"ERC20\";\r\n        symbol=\"HK\";\r\n        decimals=18;\r\n        totalSupply=1000000;\r\n    }\r\n\r\n    function transfer(address _to,uint256 _value) public returns(bool success){\r\n        require(balanceOf[msg.sender] >= _value);\r\n\r\n        balanceOf[msg.sender]-=_value;\r\n        balanceOf[_to]+=_value;\r\n\r\n        emit Transfer(msg.sender, _to, _value);\r\n\r\n        return true;\r\n    }\r\n\r\n    function approve(address _spender,uint256 _value) public returns(bool success){\r\n        require(balanceOf[msg.sender]>=_value);\r\n        allowance[msg.sender][_spender]=_value;\r\n\r\n        emit Appoval(msg.sender, _spender, _value);\r\n\r\n        return true;\r\n    }\r\n\r\n    function transferFrom(address _from,address _to,uint256 _value) public returns(bool success){\r\n        require(allowance[_from][msg.sender]>=_value);\r\n        require(balanceOf[_from]>=_value);\r\n\r\n        balanceOf[_from]-=_value;\r\n        balanceOf[_to]+=_value;\r\n\r\n        allowance[_from][msg.sender]-=_value;\r\n\r\n        emit Transfer(_from, _to, _value);\r\n\r\n        return true;\r\n    }\r\n\r\n\r\n}\r\n\r\n//A => B => 200\r\n//B => A => E => 100",
  "sourcePath": "C:\\Users\\ACT\\OneDrive\\Desktop\\ERC20-own\\contracts\\ERC20.sol",
  "compiler": {
    "name": "solc",
    "version": "0.8.11+commit.d7f03943.Emscripten.clang"
  },
  "schemaVersion": "3.4.4",
  "updatedAt": "2022-03-07T09:43:56.754Z",
  "devdoc": {
    "kind": "dev",
    "methods": {},
    "version": 1
  },
  "userdoc": {
    "kind": "user",
    "methods": {},
    "version": 1
  }
}